{
  "contractName": "Election",
  "abi": [
    {
      "constant": true,
      "inputs": [],
      "name": "candidatesCount",
      "outputs": [
        {
          "name": "",
          "type": "uint256"
        }
      ],
      "payable": false,
      "stateMutability": "view",
      "type": "function",
      "signature": "0x2d35a8a2"
    },
    {
      "constant": true,
      "inputs": [
        {
          "name": "",
          "type": "uint256"
        }
      ],
      "name": "candidates",
      "outputs": [
        {
          "name": "id",
          "type": "uint256"
        },
        {
          "name": "name",
          "type": "string"
        },
        {
          "name": "voteCount",
          "type": "uint256"
        }
      ],
      "payable": false,
      "stateMutability": "view",
      "type": "function",
      "signature": "0x3477ee2e"
    },
    {
      "inputs": [],
      "payable": false,
      "stateMutability": "nonpayable",
      "type": "constructor",
      "signature": "constructor"
    }
  ],
  "bytecode": "0x608060405234801561001057600080fd5b5061005e6040805190810160405280600881526020017f4d722e20426c75650000000000000000000000000000000000000000000000008152506101e4640100000000026401000000009004565b6100ab6040805190810160405280600981526020017f4d722e20576869746500000000000000000000000000000000000000000000008152506101e4640100000000026401000000009004565b6100f86040805190810160405280600a81526020017f4d722e204f72616e6765000000000000000000000000000000000000000000008152506101e4640100000000026401000000009004565b6101456040805190810160405280600881526020017f4d722e2050696e6b0000000000000000000000000000000000000000000000008152506101e4640100000000026401000000009004565b6101926040805190810160405280600a81526020017f4d722e20426c6f6e6465000000000000000000000000000000000000000000008152506101e4640100000000026401000000009004565b6101df6040805190810160405280600981526020017f4d722e2042726f776e00000000000000000000000000000000000000000000008152506101e4640100000000026401000000009004565b610305565b60016000815480929190600101919050555060606040519081016040528060015481526020018281526020016000815250600080600154815260200190815260200160002060008201518160000155602082015181600101908051906020019061024f929190610260565b506040820151816002015590505050565b828054600181600116156101000203166002900490600052602060002090601f016020900481019282601f106102a157805160ff19168380011785556102cf565b828001600101855582156102cf579182015b828111156102ce5782518255916020019190600101906102b3565b5b5090506102dc91906102e0565b5090565b61030291905b808211156102fe5760008160009055506001016102e6565b5090565b90565b610232806103146000396000f3fe60806040526004361061004c576000357c0100000000000000000000000000000000000000000000000000000000900463ffffffff1680632d35a8a2146100515780633477ee2e1461007c575b600080fd5b34801561005d57600080fd5b5061006661013e565b6040518082815260200191505060405180910390f35b34801561008857600080fd5b506100b56004803603602081101561009f57600080fd5b8101908080359060200190929190505050610144565b6040518084815260200180602001838152602001828103825284818151815260200191508051906020019080838360005b838110156101015780820151818401526020810190506100e6565b50505050905090810190601f16801561012e5780820380516001836020036101000a031916815260200191505b5094505050505060405180910390f35b60015481565b6000602052806000526040600020600091509050806000015490806001018054600181600116156101000203166002900480601f0160208091040260200160405190810160405280929190818152602001828054600181600116156101000203166002900480156101f65780601f106101cb576101008083540402835291602001916101f6565b820191906000526020600020905b8154815290600101906020018083116101d957829003601f168201915b505050505090806002015490508356fea165627a7a72305820ee7bf0c1e0143f77b43c307bad7a44a52bded7d225117eb84a889f81063b873b0029",
  "source": "pragma solidity >=0.4.22 <0.6.0;\r\n\r\ncontract Election {\r\n\t// Model a Candidate\r\n\tstruct Candidate {\r\n\t\tuint id;\r\n\t\tstring name;\r\n\t\tuint voteCount;\r\n\t}\r\n\r\n\t// Store Candidates\r\n\t// Fetch Candidate\r\n\tmapping(uint => Candidate) public candidates;\r\n\t// Store Candidates Count\r\n\tuint public candidatesCount;\r\n\r\n\t// Constructor\r\n\tconstructor() public {\r\n\t\taddCandidate(\"Mr. Blue\");\r\n\t\taddCandidate(\"Mr. White\");\r\n\t\taddCandidate(\"Mr. Orange\");\r\n\t\taddCandidate(\"Mr. Pink\");\r\n\t\taddCandidate(\"Mr. Blonde\");\r\n\t\taddCandidate(\"Mr. Brown\");\r\n\t}\r\n\r\n\tfunction addCandidate (string memory _name) private {\r\n\t\tcandidatesCount ++;\r\n\t\tcandidates[candidatesCount] = Candidate(candidatesCount, _name, 0);\r\n\t}\r\n\r\n}\r\n",
  "sourcePath": "E:/EthereumProjects/election/contracts/Election.sol",
  "compiler": {
    "name": "solc",
    "version": "0.5.0+commit.1d4f565a.Emscripten.clang"
  },
  "schemaVersion": "3.0.1",
  "updatedAt": "2019-03-20T04:04:35.705Z",
  "devdoc": {
    "methods": {}
  },
  "userdoc": {
    "methods": {}
  }
}